{
  "_format": "hh-sol-artifact-1",
  "contractName": "LandRegistry",
  "sourceName": "contracts/LandRegistry.sol",
  "abi": [
    {
      "inputs": [],
      "stateMutability": "nonpayable",
      "type": "constructor"
    },
    {
      "inputs": [
        {
          "internalType": "address",
          "name": "owner",
          "type": "address"
        }
      ],
      "name": "OwnableInvalidOwner",
      "type": "error"
    },
    {
      "inputs": [
        {
          "internalType": "address",
          "name": "account",
          "type": "address"
        }
      ],
      "name": "OwnableUnauthorizedAccount",
      "type": "error"
    },
    {
      "inputs": [],
      "name": "ReentrancyGuardReentrantCall",
      "type": "error"
    },
    {
      "anonymous": false,
      "inputs": [
        {
          "indexed": true,
          "internalType": "uint256",
          "name": "landId",
          "type": "uint256"
        },
        {
          "indexed": true,
          "internalType": "address",
          "name": "owner",
          "type": "address"
        }
      ],
      "name": "LandDeleted",
      "type": "event"
    },
    {
      "anonymous": false,
      "inputs": [
        {
          "indexed": true,
          "internalType": "uint256",
          "name": "landId",
          "type": "uint256"
        },
        {
          "indexed": false,
          "internalType": "string",
          "name": "landIdString",
          "type": "string"
        },
        {
          "indexed": true,
          "internalType": "address",
          "name": "owner",
          "type": "address"
        },
        {
          "indexed": false,
          "internalType": "string",
          "name": "description",
          "type": "string"
        },
        {
          "indexed": false,
          "internalType": "string",
          "name": "location",
          "type": "string"
        },
        {
          "indexed": false,
          "internalType": "uint256",
          "name": "area",
          "type": "uint256"
        },
        {
          "indexed": false,
          "internalType": "string",
          "name": "imageUrl",
          "type": "string"
        }
      ],
      "name": "LandRegistered",
      "type": "event"
    },
    {
      "anonymous": false,
      "inputs": [
        {
          "indexed": true,
          "internalType": "address",
          "name": "previousOwner",
          "type": "address"
        },
        {
          "indexed": true,
          "internalType": "address",
          "name": "newOwner",
          "type": "address"
        }
      ],
      "name": "OwnershipTransferred",
      "type": "event"
    },
    {
      "anonymous": false,
      "inputs": [
        {
          "indexed": true,
          "internalType": "uint256",
          "name": "requestId",
          "type": "uint256"
        },
        {
          "indexed": true,
          "internalType": "uint256",
          "name": "landId",
          "type": "uint256"
        },
        {
          "indexed": true,
          "internalType": "address",
          "name": "from",
          "type": "address"
        },
        {
          "indexed": false,
          "internalType": "address",
          "name": "to",
          "type": "address"
        }
      ],
      "name": "TransferApproved",
      "type": "event"
    },
    {
      "anonymous": false,
      "inputs": [
        {
          "indexed": true,
          "internalType": "uint256",
          "name": "landId",
          "type": "uint256"
        },
        {
          "indexed": true,
          "internalType": "address",
          "name": "from",
          "type": "address"
        },
        {
          "indexed": true,
          "internalType": "address",
          "name": "to",
          "type": "address"
        }
      ],
      "name": "TransferCompleted",
      "type": "event"
    },
    {
      "anonymous": false,
      "inputs": [
        {
          "indexed": true,
          "internalType": "uint256",
          "name": "requestId",
          "type": "uint256"
        },
        {
          "indexed": true,
          "internalType": "uint256",
          "name": "landId",
          "type": "uint256"
        },
        {
          "indexed": true,
          "internalType": "address",
          "name": "from",
          "type": "address"
        },
        {
          "indexed": false,
          "internalType": "address",
          "name": "to",
          "type": "address"
        },
        {
          "indexed": false,
          "internalType": "uint256",
          "name": "price",
          "type": "uint256"
        }
      ],
      "name": "TransferRequested",
      "type": "event"
    },
    {
      "anonymous": false,
      "inputs": [
        {
          "indexed": true,
          "internalType": "address",
          "name": "userAddress",
          "type": "address"
        },
        {
          "indexed": false,
          "internalType": "string",
          "name": "name",
          "type": "string"
        },
        {
          "indexed": false,
          "internalType": "string",
          "name": "email",
          "type": "string"
        },
        {
          "indexed": false,
          "internalType": "bool",
          "name": "isAdmin",
          "type": "bool"
        }
      ],
      "name": "UserRegistered",
      "type": "event"
    },
    {
      "anonymous": false,
      "inputs": [
        {
          "indexed": true,
          "internalType": "address",
          "name": "userAddress",
          "type": "address"
        }
      ],
      "name": "UserReinstated",
      "type": "event"
    },
    {
      "anonymous": false,
      "inputs": [
        {
          "indexed": true,
          "internalType": "address",
          "name": "userAddress",
          "type": "address"
        }
      ],
      "name": "UserRevoked",
      "type": "event"
    },
    {
      "inputs": [
        {
          "internalType": "uint256",
          "name": "",
          "type": "uint256"
        }
      ],
      "name": "allLandIds",
      "outputs": [
        {
          "internalType": "uint256",
          "name": "",
          "type": "uint256"
        }
      ],
      "stateMutability": "view",
      "type": "function"
    },
    {
      "inputs": [
        {
          "internalType": "uint256",
          "name": "",
          "type": "uint256"
        }
      ],
      "name": "allTransferRequestIds",
      "outputs": [
        {
          "internalType": "uint256",
          "name": "",
          "type": "uint256"
        }
      ],
      "stateMutability": "view",
      "type": "function"
    },
    {
      "inputs": [
        {
          "internalType": "uint256",
          "name": "_requestId",
          "type": "uint256"
        }
      ],
      "name": "approveTransfer",
      "outputs": [],
      "stateMutability": "nonpayable",
      "type": "function"
    },
    {
      "inputs": [
        {
          "internalType": "uint256",
          "name": "_requestId",
          "type": "uint256"
        }
      ],
      "name": "completeTransfer",
      "outputs": [],
      "stateMutability": "nonpayable",
      "type": "function"
    },
    {
      "inputs": [
        {
          "internalType": "uint256",
          "name": "_landId",
          "type": "uint256"
        }
      ],
      "name": "deleteLand",
      "outputs": [],
      "stateMutability": "nonpayable",
      "type": "function"
    },
    {
      "inputs": [],
      "name": "getAllLands",
      "outputs": [
        {
          "components": [
            {
              "internalType": "uint256",
              "name": "id",
              "type": "uint256"
            },
            {
              "internalType": "string",
              "name": "landId",
              "type": "string"
            },
            {
              "internalType": "string",
              "name": "description",
              "type": "string"
            },
            {
              "internalType": "string",
              "name": "location",
              "type": "string"
            },
            {
              "internalType": "uint256",
              "name": "area",
              "type": "uint256"
            },
            {
              "internalType": "string",
              "name": "imageUrl",
              "type": "string"
            },
            {
              "internalType": "address",
              "name": "currentOwner",
              "type": "address"
            },
            {
              "internalType": "bool",
              "name": "isRegistered",
              "type": "bool"
            },
            {
              "internalType": "uint256",
              "name": "registrationDate",
              "type": "uint256"
            }
          ],
          "internalType": "struct LandRegistry.Land[]",
          "name": "",
          "type": "tuple[]"
        }
      ],
      "stateMutability": "view",
      "type": "function"
    },
    {
      "inputs": [],
      "name": "getAllTransferRequests",
      "outputs": [
        {
          "components": [
            {
              "internalType": "uint256",
              "name": "id",
              "type": "uint256"
            },
            {
              "internalType": "uint256",
              "name": "landId",
              "type": "uint256"
            },
            {
              "internalType": "address",
              "name": "from",
              "type": "address"
            },
            {
              "internalType": "address",
              "name": "to",
              "type": "address"
            },
            {
              "internalType": "uint256",
              "name": "price",
              "type": "uint256"
            },
            {
              "internalType": "bool",
              "name": "isApproved",
              "type": "bool"
            },
            {
              "internalType": "bool",
              "name": "isCompleted",
              "type": "bool"
            },
            {
              "internalType": "uint256",
              "name": "requestDate",
              "type": "uint256"
            },
            {
              "internalType": "string",
              "name": "message",
              "type": "string"
            }
          ],
          "internalType": "struct LandRegistry.TransferRequest[]",
          "name": "",
          "type": "tuple[]"
        }
      ],
      "stateMutability": "view",
      "type": "function"
    },
    {
      "inputs": [
        {
          "internalType": "uint256",
          "name": "_landId",
          "type": "uint256"
        }
      ],
      "name": "getLand",
      "outputs": [
        {
          "components": [
            {
              "internalType": "uint256",
              "name": "id",
              "type": "uint256"
            },
            {
              "internalType": "string",
              "name": "landId",
              "type": "string"
            },
            {
              "internalType": "string",
              "name": "description",
              "type": "string"
            },
            {
              "internalType": "string",
              "name": "location",
              "type": "string"
            },
            {
              "internalType": "uint256",
              "name": "area",
              "type": "uint256"
            },
            {
              "internalType": "string",
              "name": "imageUrl",
              "type": "string"
            },
            {
              "internalType": "address",
              "name": "currentOwner",
              "type": "address"
            },
            {
              "internalType": "bool",
              "name": "isRegistered",
              "type": "bool"
            },
            {
              "internalType": "uint256",
              "name": "registrationDate",
              "type": "uint256"
            }
          ],
          "internalType": "struct LandRegistry.Land",
          "name": "",
          "type": "tuple"
        }
      ],
      "stateMutability": "view",
      "type": "function"
    },
    {
      "inputs": [
        {
          "internalType": "uint256",
          "name": "_landId",
          "type": "uint256"
        }
      ],
      "name": "getLandTransferHistory",
      "outputs": [
        {
          "components": [
            {
              "internalType": "uint256",
              "name": "id",
              "type": "uint256"
            },
            {
              "internalType": "uint256",
              "name": "landId",
              "type": "uint256"
            },
            {
              "internalType": "address",
              "name": "from",
              "type": "address"
            },
            {
              "internalType": "address",
              "name": "to",
              "type": "address"
            },
            {
              "internalType": "uint256",
              "name": "price",
              "type": "uint256"
            },
            {
              "internalType": "bool",
              "name": "isApproved",
              "type": "bool"
            },
            {
              "internalType": "bool",
              "name": "isCompleted",
              "type": "bool"
            },
            {
              "internalType": "uint256",
              "name": "requestDate",
              "type": "uint256"
            },
            {
              "internalType": "string",
              "name": "message",
              "type": "string"
            }
          ],
          "internalType": "struct LandRegistry.TransferRequest[]",
          "name": "",
          "type": "tuple[]"
        }
      ],
      "stateMutability": "view",
      "type": "function"
    },
    {
      "inputs": [],
      "name": "getPendingTransfers",
      "outputs": [
        {
          "components": [
            {
              "internalType": "uint256",
              "name": "id",
              "type": "uint256"
            },
            {
              "internalType": "uint256",
              "name": "landId",
              "type": "uint256"
            },
            {
              "internalType": "address",
              "name": "from",
              "type": "address"
            },
            {
              "internalType": "address",
              "name": "to",
              "type": "address"
            },
            {
              "internalType": "uint256",
              "name": "price",
              "type": "uint256"
            },
            {
              "internalType": "bool",
              "name": "isApproved",
              "type": "bool"
            },
            {
              "internalType": "bool",
              "name": "isCompleted",
              "type": "bool"
            },
            {
              "internalType": "uint256",
              "name": "requestDate",
              "type": "uint256"
            },
            {
              "internalType": "string",
              "name": "message",
              "type": "string"
            }
          ],
          "internalType": "struct LandRegistry.TransferRequest[]",
          "name": "",
          "type": "tuple[]"
        }
      ],
      "stateMutability": "view",
      "type": "function"
    },
    {
      "inputs": [],
      "name": "getTotalLands",
      "outputs": [
        {
          "internalType": "uint256",
          "name": "",
          "type": "uint256"
        }
      ],
      "stateMutability": "view",
      "type": "function"
    },
    {
      "inputs": [],
      "name": "getTotalUsers",
      "outputs": [
        {
          "internalType": "uint256",
          "name": "",
          "type": "uint256"
        }
      ],
      "stateMutability": "view",
      "type": "function"
    },
    {
      "inputs": [
        {
          "internalType": "address",
          "name": "_userAddress",
          "type": "address"
        }
      ],
      "name": "getUser",
      "outputs": [
        {
          "components": [
            {
              "internalType": "address",
              "name": "userAddress",
              "type": "address"
            },
            {
              "internalType": "string",
              "name": "name",
              "type": "string"
            },
            {
              "internalType": "string",
              "name": "email",
              "type": "string"
            },
            {
              "internalType": "bool",
              "name": "isRegistered",
              "type": "bool"
            },
            {
              "internalType": "bool",
              "name": "isAdmin",
              "type": "bool"
            },
            {
              "internalType": "bool",
              "name": "isActive",
              "type": "bool"
            },
            {
              "internalType": "uint256",
              "name": "registrationDate",
              "type": "uint256"
            }
          ],
          "internalType": "struct LandRegistry.User",
          "name": "",
          "type": "tuple"
        }
      ],
      "stateMutability": "view",
      "type": "function"
    },
    {
      "inputs": [
        {
          "internalType": "address",
          "name": "_user",
          "type": "address"
        }
      ],
      "name": "getUserLands",
      "outputs": [
        {
          "internalType": "uint256[]",
          "name": "",
          "type": "uint256[]"
        }
      ],
      "stateMutability": "view",
      "type": "function"
    },
    {
      "inputs": [
        {
          "internalType": "address",
          "name": "_userAddress",
          "type": "address"
        }
      ],
      "name": "isUserActive",
      "outputs": [
        {
          "internalType": "bool",
          "name": "",
          "type": "bool"
        }
      ],
      "stateMutability": "view",
      "type": "function"
    },
    {
      "inputs": [
        {
          "internalType": "uint256",
          "name": "",
          "type": "uint256"
        },
        {
          "internalType": "uint256",
          "name": "",
          "type": "uint256"
        }
      ],
      "name": "landTransferHistory",
      "outputs": [
        {
          "internalType": "uint256",
          "name": "",
          "type": "uint256"
        }
      ],
      "stateMutability": "view",
      "type": "function"
    },
    {
      "inputs": [
        {
          "internalType": "uint256",
          "name": "",
          "type": "uint256"
        }
      ],
      "name": "lands",
      "outputs": [
        {
          "internalType": "uint256",
          "name": "id",
          "type": "uint256"
        },
        {
          "internalType": "string",
          "name": "landId",
          "type": "string"
        },
        {
          "internalType": "string",
          "name": "description",
          "type": "string"
        },
        {
          "internalType": "string",
          "name": "location",
          "type": "string"
        },
        {
          "internalType": "uint256",
          "name": "area",
          "type": "uint256"
        },
        {
          "internalType": "string",
          "name": "imageUrl",
          "type": "string"
        },
        {
          "internalType": "address",
          "name": "currentOwner",
          "type": "address"
        },
        {
          "internalType": "bool",
          "name": "isRegistered",
          "type": "bool"
        },
        {
          "internalType": "uint256",
          "name": "registrationDate",
          "type": "uint256"
        }
      ],
      "stateMutability": "view",
      "type": "function"
    },
    {
      "inputs": [],
      "name": "owner",
      "outputs": [
        {
          "internalType": "address",
          "name": "",
          "type": "address"
        }
      ],
      "stateMutability": "view",
      "type": "function"
    },
    {
      "inputs": [
        {
          "internalType": "string",
          "name": "_landId",
          "type": "string"
        },
        {
          "internalType": "string",
          "name": "_description",
          "type": "string"
        },
        {
          "internalType": "string",
          "name": "_location",
          "type": "string"
        },
        {
          "internalType": "uint256",
          "name": "_area",
          "type": "uint256"
        },
        {
          "internalType": "string",
          "name": "_imageUrl",
          "type": "string"
        },
        {
          "internalType": "address",
          "name": "_owner",
          "type": "address"
        }
      ],
      "name": "registerLand",
      "outputs": [],
      "stateMutability": "nonpayable",
      "type": "function"
    },
    {
      "inputs": [
        {
          "internalType": "address",
          "name": "_userAddress",
          "type": "address"
        },
        {
          "internalType": "string",
          "name": "_name",
          "type": "string"
        },
        {
          "internalType": "string",
          "name": "_email",
          "type": "string"
        },
        {
          "internalType": "bool",
          "name": "_isAdmin",
          "type": "bool"
        }
      ],
      "name": "registerUser",
      "outputs": [],
      "stateMutability": "nonpayable",
      "type": "function"
    },
    {
      "inputs": [
        {
          "internalType": "address",
          "name": "_userAddress",
          "type": "address"
        }
      ],
      "name": "reinstateUser",
      "outputs": [],
      "stateMutability": "nonpayable",
      "type": "function"
    },
    {
      "inputs": [],
      "name": "renounceOwnership",
      "outputs": [],
      "stateMutability": "nonpayable",
      "type": "function"
    },
    {
      "inputs": [
        {
          "internalType": "uint256",
          "name": "_landId",
          "type": "uint256"
        },
        {
          "internalType": "address",
          "name": "_to",
          "type": "address"
        },
        {
          "internalType": "uint256",
          "name": "_price",
          "type": "uint256"
        },
        {
          "internalType": "string",
          "name": "_message",
          "type": "string"
        }
      ],
      "name": "requestTransfer",
      "outputs": [],
      "stateMutability": "nonpayable",
      "type": "function"
    },
    {
      "inputs": [
        {
          "internalType": "address",
          "name": "_userAddress",
          "type": "address"
        }
      ],
      "name": "revokeUser",
      "outputs": [],
      "stateMutability": "nonpayable",
      "type": "function"
    },
    {
      "inputs": [
        {
          "internalType": "address",
          "name": "newOwner",
          "type": "address"
        }
      ],
      "name": "transferOwnership",
      "outputs": [],
      "stateMutability": "nonpayable",
      "type": "function"
    },
    {
      "inputs": [
        {
          "internalType": "uint256",
          "name": "",
          "type": "uint256"
        }
      ],
      "name": "transferRequests",
      "outputs": [
        {
          "internalType": "uint256",
          "name": "id",
          "type": "uint256"
        },
        {
          "internalType": "uint256",
          "name": "landId",
          "type": "uint256"
        },
        {
          "internalType": "address",
          "name": "from",
          "type": "address"
        },
        {
          "internalType": "address",
          "name": "to",
          "type": "address"
        },
        {
          "internalType": "uint256",
          "name": "price",
          "type": "uint256"
        },
        {
          "internalType": "bool",
          "name": "isApproved",
          "type": "bool"
        },
        {
          "internalType": "bool",
          "name": "isCompleted",
          "type": "bool"
        },
        {
          "internalType": "uint256",
          "name": "requestDate",
          "type": "uint256"
        },
        {
          "internalType": "string",
          "name": "message",
          "type": "string"
        }
      ],
      "stateMutability": "view",
      "type": "function"
    },
    {
      "inputs": [
        {
          "internalType": "address",
          "name": "",
          "type": "address"
        },
        {
          "internalType": "uint256",
          "name": "",
          "type": "uint256"
        }
      ],
      "name": "userLands",
      "outputs": [
        {
          "internalType": "uint256",
          "name": "",
          "type": "uint256"
        }
      ],
      "stateMutability": "view",
      "type": "function"
    },
    {
      "inputs": [
        {
          "internalType": "address",
          "name": "",
          "type": "address"
        }
      ],
      "name": "users",
      "outputs": [
        {
          "internalType": "address",
          "name": "userAddress",
          "type": "address"
        },
        {
          "internalType": "string",
          "name": "name",
          "type": "string"
        },
        {
          "internalType": "string",
          "name": "email",
          "type": "string"
        },
        {
          "internalType": "bool",
          "name": "isRegistered",
          "type": "bool"
        },
        {
          "internalType": "bool",
          "name": "isAdmin",
          "type": "bool"
        },
        {
          "internalType": "bool",
          "name": "isActive",
          "type": "bool"
        },
        {
          "internalType": "uint256",
          "name": "registrationDate",
          "type": "uint256"
        }
      ],
      "stateMutability": "view",
      "type": "function"
    }
  ],
  "bytecode": "0x60806040523480156200001157600080fd5b5033600073ffffffffffffffffffffffffffffffffffffffff168173ffffffffffffffffffffffffffffffffffffffff1603620000885760006040517f1e4fbdf70000000000000000000000000000000000000000000000000000000081526004016200007f919062000502565b60405180910390fd5b62000099816200012660201b60201c565b506001808190555062000120336040518060400160405280600c81526020017f53797374656d2041646d696e00000000000000000000000000000000000000008152506040518060400160405280601681526020017f61646d696e406c616e6472656769737472792e636f6d000000000000000000008152506001620001ea60201b60201c565b62000a5b565b60008060009054906101000a900473ffffffffffffffffffffffffffffffffffffffff169050816000806101000a81548173ffffffffffffffffffffffffffffffffffffffff021916908373ffffffffffffffffffffffffffffffffffffffff1602179055508173ffffffffffffffffffffffffffffffffffffffff168173ffffffffffffffffffffffffffffffffffffffff167f8be0079c531659141344cd1fd0a4f28419497f9722a3daafe3b4186f6b6457e060405160405180910390a35050565b600560008573ffffffffffffffffffffffffffffffffffffffff1673ffffffffffffffffffffffffffffffffffffffff16815260200190815260200160002060030160009054906101000a900460ff16156200027d576040517f08c379a0000000000000000000000000000000000000000000000000000000008152600401620002749062000580565b60405180910390fd5b600073ffffffffffffffffffffffffffffffffffffffff168473ffffffffffffffffffffffffffffffffffffffff1603620002ef576040517f08c379a0000000000000000000000000000000000000000000000000000000008152600401620002e690620005f2565b60405180910390fd5b6040518060e001604052808573ffffffffffffffffffffffffffffffffffffffff168152602001848152602001838152602001600115158152602001821515815260200160011515815260200142815250600560008673ffffffffffffffffffffffffffffffffffffffff1673ffffffffffffffffffffffffffffffffffffffff16815260200190815260200160002060008201518160000160006101000a81548173ffffffffffffffffffffffffffffffffffffffff021916908373ffffffffffffffffffffffffffffffffffffffff1602179055506020820151816001019081620003dd91906200088e565b506040820151816002019081620003f591906200088e565b5060608201518160030160006101000a81548160ff02191690831515021790555060808201518160030160016101000a81548160ff02191690831515021790555060a08201518160030160026101000a81548160ff02191690831515021790555060c082015181600401559050508373ffffffffffffffffffffffffffffffffffffffff167fd1f005bda6f032608782b72061b075bc80a64f2b8720195c85f763dbe02c8b86848484604051620004af9392919062000a10565b60405180910390a250505050565b600073ffffffffffffffffffffffffffffffffffffffff82169050919050565b6000620004ea82620004bd565b9050919050565b620004fc81620004dd565b82525050565b6000602082019050620005196000830184620004f1565b92915050565b600082825260208201905092915050565b7f5573657220616c72656164792072656769737465726564000000000000000000600082015250565b6000620005686017836200051f565b9150620005758262000530565b602082019050919050565b600060208201905081810360008301526200059b8162000559565b9050919050565b7f496e76616c696420616464726573730000000000000000000000000000000000600082015250565b6000620005da600f836200051f565b9150620005e782620005a2565b602082019050919050565b600060208201905081810360008301526200060d81620005cb565b9050919050565b600081519050919050565b7f4e487b7100000000000000000000000000000000000000000000000000000000600052604160045260246000fd5b7f4e487b7100000000000000000000000000000000000000000000000000000000600052602260045260246000fd5b600060028204905060018216806200069657607f821691505b602082108103620006ac57620006ab6200064e565b5b50919050565b60008190508160005260206000209050919050565b60006020601f8301049050919050565b600082821b905092915050565b600060088302620007167fffffffffffffffffffffffffffffffffffffffffffffffffffffffffffffffff82620006d7565b620007228683620006d7565b95508019841693508086168417925050509392505050565b6000819050919050565b6000819050919050565b60006200076f6200076962000763846200073a565b62000744565b6200073a565b9050919050565b6000819050919050565b6200078b836200074e565b620007a36200079a8262000776565b848454620006e4565b825550505050565b600090565b620007ba620007ab565b620007c781848462000780565b505050565b5b81811015620007ef57620007e3600082620007b0565b600181019050620007cd565b5050565b601f8211156200083e576200080881620006b2565b6200081384620006c7565b8101602085101562000823578190505b6200083b6200083285620006c7565b830182620007cc565b50505b505050565b600082821c905092915050565b6000620008636000198460080262000843565b1980831691505092915050565b60006200087e838362000850565b9150826002028217905092915050565b620008998262000614565b67ffffffffffffffff811115620008b557620008b46200061f565b5b620008c182546200067d565b620008ce828285620007f3565b600060209050601f831160018114620009065760008415620008f1578287015190505b620008fd858262000870565b8655506200096d565b601f1984166200091686620006b2565b60005b82811015620009405784890151825560018201915060208501945060208101905062000919565b868310156200096057848901516200095c601f89168262000850565b8355505b6001600288020188555050505b505050505050565b60005b838110156200099557808201518184015260208101905062000978565b60008484015250505050565b6000601f19601f8301169050919050565b6000620009bf8262000614565b620009cb81856200051f565b9350620009dd81856020860162000975565b620009e881620009a1565b840191505092915050565b60008115159050919050565b62000a0a81620009f3565b82525050565b6000606082019050818103600083015262000a2c8186620009b2565b9050818103602083015262000a428185620009b2565b905062000a536040830184620009ff565b949350505050565b615bf68062000a6b6000396000f3fe608060405234801561001057600080fd5b50600436106101c45760003560e01c80638da5cb5b116100f9578063d42e218f11610097578063ef097fc411610071578063ef097fc414610555578063f02dd53f14610571578063f2fde38b146105a1578063fd9b2c8d146105bd576101c4565b8063d42e218f146104d1578063dc219adc146104ed578063e261f1e51461051d576101c4565b8063a87430ba116100d3578063a87430ba14610445578063b7b6e5431461047b578063cacca4a014610499578063cf32d0c5146104b5576101c4565b80638da5cb5b146103d95780639be572f6146103f75780639ee20b1514610415576101c4565b8063619c83ed11610166578063715018a611610140578063715018a614610351578063756d98e71461035b578063842e7dba1461038b5780638ac559df146103a9576101c4565b8063619c83ed146102e95780636f77926b146103055780637017321514610335576101c4565b8063348c3419116101a2578063348c341914610261578063421526a71461027f578063448878fc1461029b578063514b72ba146102b9576101c4565b806303486c40146101c95780631cdfd2901461020157806328bf5ef514610231575b600080fd5b6101e360048036038101906101de9190614024565b6105d9565b6040516101f89998979695949392919061414c565b60405180910390f35b61021b60048036038101906102169190614024565b610709565b60405161022891906141e0565b60405180910390f35b61024b60048036038101906102469190614227565b61072d565b6040516102589190614312565b60405180910390f35b6102696107c4565b6040516102769190614523565b60405180910390f35b6102996004803603810190610294919061467a565b610a45565b005b6102a3610fab565b6040516102b09190614523565b60405180910390f35b6102d360048036038101906102ce9190614024565b61131f565b6040516102e091906141e0565b60405180910390f35b61030360048036038101906102fe9190614024565b611343565b005b61031f600480360381019061031a9190614227565b611702565b60405161032c91906147a0565b60405180910390f35b61034f600480360381019061034a91906147c2565b6119bf565b005b610359611deb565b005b61037560048036038101906103709190614024565b611dff565b6040516103829190614523565b60405180910390f35b6103936120dd565b6040516103a091906141e0565b60405180910390f35b6103c360048036038101906103be91906148bf565b6120ea565b6040516103d091906141e0565b60405180910390f35b6103e161211b565b6040516103ee91906148ff565b60405180910390f35b6103ff612144565b60405161040c91906141e0565b60405180910390f35b61042f600480360381019061042a9190614227565b612149565b60405161043c919061491a565b60405180910390f35b61045f600480360381019061045a9190614227565b6121a2565b6040516104729796959493929190614935565b60405180910390f35b61048361233b565b6040516104909190614b4e565b60405180910390f35b6104b360048036038101906104ae9190614024565b6126f7565b005b6104cf60048036038101906104ca9190614227565b61297b565b005b6104eb60048036038101906104e69190614b9c565b612bca565b005b61050760048036038101906105029190614c3b565b612c6b565b60405161051491906141e0565b60405180910390f35b61053760048036038101906105329190614024565b612c9c565b60405161054c99989796959493929190614c7b565b60405180910390f35b61056f600480360381019061056a9190614227565b612f37565b005b61058b60048036038101906105869190614024565b6131f3565b6040516105989190614dfe565b60405180910390f35b6105bb60048036038101906105b69190614227565b61355b565b005b6105d760048036038101906105d29190614024565b6135e1565b005b60066020528060005260406000206000915090508060000154908060010154908060020160009054906101000a900473ffffffffffffffffffffffffffffffffffffffff16908060030160009054906101000a900473ffffffffffffffffffffffffffffffffffffffff16908060040154908060050160009054906101000a900460ff16908060050160019054906101000a900460ff169080600601549080600701805461068690614e4f565b80601f01602080910402602001604051908101604052809291908181526020018280546106b290614e4f565b80156106ff5780601f106106d4576101008083540402835291602001916106ff565b820191906000526020600020905b8154815290600101906020018083116106e257829003601f168201915b5050505050905089565b600a818154811061071957600080fd5b906000526020600020016000915090505481565b6060600760008373ffffffffffffffffffffffffffffffffffffffff1673ffffffffffffffffffffffffffffffffffffffff1681526020019081526020016000208054806020026020016040519081016040528092919081815260200182805480156107b857602002820191906000526020600020905b8154815260200190600101908083116107a4575b50505050509050919050565b60606000600a8054905067ffffffffffffffff8111156107e7576107e661454f565b5b60405190808252806020026020018201604052801561082057816020015b61080d613e44565b8152602001906001900390816108055790505b50905060005b600a80549050811015610a3d5760066000600a838154811061084b5761084a614e80565b5b906000526020600020015481526020019081526020016000206040518061012001604052908160008201548152602001600182015481526020016002820160009054906101000a900473ffffffffffffffffffffffffffffffffffffffff1673ffffffffffffffffffffffffffffffffffffffff1673ffffffffffffffffffffffffffffffffffffffff1681526020016003820160009054906101000a900473ffffffffffffffffffffffffffffffffffffffff1673ffffffffffffffffffffffffffffffffffffffff1673ffffffffffffffffffffffffffffffffffffffff168152602001600482015481526020016005820160009054906101000a900460ff161515151581526020016005820160019054906101000a900460ff161515151581526020016006820154815260200160078201805461098a90614e4f565b80601f01602080910402602001604051908101604052809291908181526020018280546109b690614e4f565b8015610a035780601f106109d857610100808354040283529160200191610a03565b820191906000526020600020905b8154815290600101906020018083116109e657829003601f168201915b505050505081525050828281518110610a1f57610a1e614e80565b5b60200260200101819052508080610a3590614ede565b915050610826565b508091505090565b600560003373ffffffffffffffffffffffffffffffffffffffff1673ffffffffffffffffffffffffffffffffffffffff16815260200190815260200160002060030160009054906101000a900460ff16610ad4576040517f08c379a0000000000000000000000000000000000000000000000000000000008152600401610acb90614f72565b60405180910390fd5b600560003373ffffffffffffffffffffffffffffffffffffffff1673ffffffffffffffffffffffffffffffffffffffff16815260200190815260200160002060030160029054906101000a900460ff16610b63576040517f08c379a0000000000000000000000000000000000000000000000000000000008152600401610b5a90614fde565b60405180910390fd5b833373ffffffffffffffffffffffffffffffffffffffff166004600083815260200190815260200160002060060160009054906101000a900473ffffffffffffffffffffffffffffffffffffffff1673ffffffffffffffffffffffffffffffffffffffff1614610c08576040517f08c379a0000000000000000000000000000000000000000000000000000000008152600401610bff9061504a565b60405180910390fd5b600073ffffffffffffffffffffffffffffffffffffffff168473ffffffffffffffffffffffffffffffffffffffff1603610c77576040517f08c379a0000000000000000000000000000000000000000000000000000000008152600401610c6e906150b6565b60405180910390fd5b600560008573ffffffffffffffffffffffffffffffffffffffff1673ffffffffffffffffffffffffffffffffffffffff16815260200190815260200160002060030160009054906101000a900460ff16610d06576040517f08c379a0000000000000000000000000000000000000000000000000000000008152600401610cfd90615122565b60405180910390fd5b3373ffffffffffffffffffffffffffffffffffffffff168473ffffffffffffffffffffffffffffffffffffffff1603610d74576040517f08c379a0000000000000000000000000000000000000000000000000000000008152600401610d6b9061518e565b60405180910390fd5b60036000815480929190610d8790614ede565b9190505550600060035490506040518061012001604052808281526020018781526020013373ffffffffffffffffffffffffffffffffffffffff1681526020018673ffffffffffffffffffffffffffffffffffffffff1681526020018581526020016000151581526020016000151581526020014281526020018481525060066000838152602001908152602001600020600082015181600001556020820151816001015560408201518160020160006101000a81548173ffffffffffffffffffffffffffffffffffffffff021916908373ffffffffffffffffffffffffffffffffffffffff16021790555060608201518160030160006101000a81548173ffffffffffffffffffffffffffffffffffffffff021916908373ffffffffffffffffffffffffffffffffffffffff1602179055506080820151816004015560a08201518160050160006101000a81548160ff02191690831515021790555060c08201518160050160016101000a81548160ff02191690831515021790555060e08201518160060155610100820151816007019081610f24919061535a565b50905050600a8190806001815401808255809150506001900390600052602060002001600090919091909150553373ffffffffffffffffffffffffffffffffffffffff1686827f5fb2e4d56c3e24ecd6780a45d26149b6188355d17bd78ce1c14e0daf26c354fd8888604051610f9b92919061542c565b60405180910390a4505050505050565b60606000805b600a805490508110156110735760066000600a8381548110610fd657610fd5614e80565b5b9060005260206000200154815260200190815260200160002060050160009054906101000a900460ff1615801561104c575060066000600a83815481106110205761101f614e80565b5b9060005260206000200154815260200190815260200160002060050160019054906101000a900460ff16155b1561106057818061105c90614ede565b9250505b808061106b90614ede565b915050610fb1565b5060008167ffffffffffffffff8111156110905761108f61454f565b5b6040519080825280602002602001820160405280156110c957816020015b6110b6613e44565b8152602001906001900390816110ae5790505b5090506000805b600a8054905081101561131557600060066000600a84815481106110f7576110f6614e80565b5b906000526020600020015481526020019081526020016000206040518061012001604052908160008201548152602001600182015481526020016002820160009054906101000a900473ffffffffffffffffffffffffffffffffffffffff1673ffffffffffffffffffffffffffffffffffffffff1673ffffffffffffffffffffffffffffffffffffffff1681526020016003820160009054906101000a900473ffffffffffffffffffffffffffffffffffffffff1673ffffffffffffffffffffffffffffffffffffffff1673ffffffffffffffffffffffffffffffffffffffff168152602001600482015481526020016005820160009054906101000a900460ff161515151581526020016005820160019054906101000a900460ff161515151581526020016006820154815260200160078201805461123690614e4f565b80601f016020809104026020016040519081016040528092919081815260200182805461126290614e4f565b80156112af5780601f10611284576101008083540402835291602001916112af565b820191906000526020600020905b81548152906001019060200180831161129257829003601f168201915b50505050508152505090508060a001511580156112ce57508060c00151155b1561130157808484815181106112e7576112e6614e80565b5b602002602001018190525082806112fd90614ede565b9350505b50808061130d90614ede565b9150506110d0565b5081935050505090565b6009818154811061132f57600080fd5b906000526020600020016000915090505481565b600560003373ffffffffffffffffffffffffffffffffffffffff1673ffffffffffffffffffffffffffffffffffffffff16815260200190815260200160002060030160019054906101000a900460ff166113d2576040517f08c379a00000000000000000000000000000000000000000000000000000000081526004016113c9906154a1565b60405180910390fd5b6113da6138d1565b6000600660008381526020019081526020016000206000015403611433576040517f08c379a000000000000000000000000000000000000000000000000000000000815260040161142a9061550d565b60405180910390fd5b6006600082815260200190815260200160002060050160009054906101000a900460ff16611496576040517f08c379a000000000000000000000000000000000000000000000000000000000815260040161148d90615579565b60405180910390fd5b6006600082815260200190815260200160002060050160019054906101000a900460ff16156114fa576040517f08c379a00000000000000000000000000000000000000000000000000000000081526004016114f1906155e5565b60405180910390fd5b600060066000838152602001908152602001600020905060006004600083600101548152602001908152602001600020905060008160060160009054906101000a900473ffffffffffffffffffffffffffffffffffffffff16905060008360030160009054906101000a900473ffffffffffffffffffffffffffffffffffffffff16905061158c828560010154613917565b600760008273ffffffffffffffffffffffffffffffffffffffff1673ffffffffffffffffffffffffffffffffffffffff16815260200190815260200160002084600101549080600181540180825580915050600190039060005260206000200160009091909190915055808360060160006101000a81548173ffffffffffffffffffffffffffffffffffffffff021916908373ffffffffffffffffffffffffffffffffffffffff16021790555060018460050160016101000a81548160ff02191690831515021790555060086000856001015481526020019081526020016000208590806001815401808255809150506001900390600052602060002001600090919091909150558073ffffffffffffffffffffffffffffffffffffffff168273ffffffffffffffffffffffffffffffffffffffff1685600101547fe30f4d2a28a67cdb8856ab10670990536f9e43edbec16c6c9094a931a58bce9560405160405180910390a4505050506116ff613a21565b50565b61170a613ec0565b600560008373ffffffffffffffffffffffffffffffffffffffff1673ffffffffffffffffffffffffffffffffffffffff16815260200190815260200160002060030160009054906101000a900460ff16611799576040517f08c379a000000000000000000000000000000000000000000000000000000000815260040161179090615651565b60405180910390fd5b600560008373ffffffffffffffffffffffffffffffffffffffff1673ffffffffffffffffffffffffffffffffffffffff1681526020019081526020016000206040518060e00160405290816000820160009054906101000a900473ffffffffffffffffffffffffffffffffffffffff1673ffffffffffffffffffffffffffffffffffffffff1673ffffffffffffffffffffffffffffffffffffffff16815260200160018201805461184990614e4f565b80601f016020809104026020016040519081016040528092919081815260200182805461187590614e4f565b80156118c25780601f10611897576101008083540402835291602001916118c2565b820191906000526020600020905b8154815290600101906020018083116118a557829003601f168201915b505050505081526020016002820180546118db90614e4f565b80601f016020809104026020016040519081016040528092919081815260200182805461190790614e4f565b80156119545780601f1061192957610100808354040283529160200191611954565b820191906000526020600020905b81548152906001019060200180831161193757829003601f168201915b505050505081526020016003820160009054906101000a900460ff161515151581526020016003820160019054906101000a900460ff161515151581526020016003820160029054906101000a900460ff161515151581526020016004820154815250509050919050565b600560003373ffffffffffffffffffffffffffffffffffffffff1673ffffffffffffffffffffffffffffffffffffffff16815260200190815260200160002060030160019054906101000a900460ff16611a4e576040517f08c379a0000000000000000000000000000000000000000000000000000000008152600401611a45906154a1565b60405180910390fd5b600073ffffffffffffffffffffffffffffffffffffffff168173ffffffffffffffffffffffffffffffffffffffff1603611abd576040517f08c379a0000000000000000000000000000000000000000000000000000000008152600401611ab4906156bd565b60405180910390fd5b600560008273ffffffffffffffffffffffffffffffffffffffff1673ffffffffffffffffffffffffffffffffffffffff16815260200190815260200160002060030160009054906101000a900460ff16611b4c576040517f08c379a0000000000000000000000000000000000000000000000000000000008152600401611b4390615729565b60405180910390fd5b6000865111611b90576040517f08c379a0000000000000000000000000000000000000000000000000000000008152600401611b8790615795565b60405180910390fd5b60026000815480929190611ba390614ede565b9190505550600060025490506040518061012001604052808281526020018881526020018781526020018681526020018581526020018481526020018373ffffffffffffffffffffffffffffffffffffffff1681526020016001151581526020014281525060046000838152602001908152602001600020600082015181600001556020820151816001019081611c3a919061535a565b506040820151816002019081611c50919061535a565b506060820151816003019081611c66919061535a565b506080820151816004015560a0820151816005019081611c86919061535a565b5060c08201518160060160006101000a81548173ffffffffffffffffffffffffffffffffffffffff021916908373ffffffffffffffffffffffffffffffffffffffff16021790555060e08201518160060160146101000a81548160ff0219169083151502179055506101008201518160070155905050600760008373ffffffffffffffffffffffffffffffffffffffff1673ffffffffffffffffffffffffffffffffffffffff16815260200190815260200160002081908060018154018082558091505060019003906000526020600020016000909190919091505560098190806001815401808255809150506001900390600052602060002001600090919091909150558173ffffffffffffffffffffffffffffffffffffffff16817f038f4d92beb62952502ea0c8c460417377929d26df3f0dd5d42ab4441d0b2d108989898989604051611dda9594939291906157b5565b60405180910390a350505050505050565b611df3613a2a565b611dfd6000613ab1565b565b6060600060086000848152602001908152602001600020805480602002602001604051908101604052809291908181526020018280548015611e6057602002820191906000526020600020905b815481526020019060010190808311611e4c575b505050505090506000815167ffffffffffffffff811115611e8457611e8361454f565b5b604051908082528060200260200182016040528015611ebd57816020015b611eaa613e44565b815260200190600190039081611ea25790505b50905060005b82518110156120d25760066000848381518110611ee357611ee2614e80565b5b602002602001015181526020019081526020016000206040518061012001604052908160008201548152602001600182015481526020016002820160009054906101000a900473ffffffffffffffffffffffffffffffffffffffff1673ffffffffffffffffffffffffffffffffffffffff1673ffffffffffffffffffffffffffffffffffffffff1681526020016003820160009054906101000a900473ffffffffffffffffffffffffffffffffffffffff1673ffffffffffffffffffffffffffffffffffffffff1673ffffffffffffffffffffffffffffffffffffffff168152602001600482015481526020016005820160009054906101000a900460ff161515151581526020016005820160019054906101000a900460ff161515151581526020016006820154815260200160078201805461201f90614e4f565b80601f016020809104026020016040519081016040528092919081815260200182805461204b90614e4f565b80156120985780601f1061206d57610100808354040283529160200191612098565b820191906000526020600020905b81548152906001019060200180831161207b57829003601f168201915b5050505050815250508282815181106120b4576120b3614e80565b5b602002602001018190525080806120ca90614ede565b915050611ec3565b508092505050919050565b6000600980549050905090565b6008602052816000526040600020818154811061210657600080fd5b90600052602060002001600091509150505481565b60008060009054906101000a900473ffffffffffffffffffffffffffffffffffffffff16905090565b600090565b6000600560008373ffffffffffffffffffffffffffffffffffffffff1673ffffffffffffffffffffffffffffffffffffffff16815260200190815260200160002060030160029054906101000a900460ff169050919050565b60056020528060005260406000206000915090508060000160009054906101000a900473ffffffffffffffffffffffffffffffffffffffff16908060010180546121eb90614e4f565b80601f016020809104026020016040519081016040528092919081815260200182805461221790614e4f565b80156122645780601f1061223957610100808354040283529160200191612264565b820191906000526020600020905b81548152906001019060200180831161224757829003601f168201915b50505050509080600201805461227990614e4f565b80601f01602080910402602001604051908101604052809291908181526020018280546122a590614e4f565b80156122f25780601f106122c7576101008083540402835291602001916122f2565b820191906000526020600020905b8154815290600101906020018083116122d557829003601f168201915b5050505050908060030160009054906101000a900460ff16908060030160019054906101000a900460ff16908060030160029054906101000a900460ff16908060040154905087565b6060600060098054905067ffffffffffffffff81111561235e5761235d61454f565b5b60405190808252806020026020018201604052801561239757816020015b612384613f19565b81526020019060019003908161237c5790505b50905060005b6009805490508110156126ef5760046000600983815481106123c2576123c1614e80565b5b90600052602060002001548152602001908152602001600020604051806101200160405290816000820154815260200160018201805461240190614e4f565b80601f016020809104026020016040519081016040528092919081815260200182805461242d90614e4f565b801561247a5780601f1061244f5761010080835404028352916020019161247a565b820191906000526020600020905b81548152906001019060200180831161245d57829003601f168201915b5050505050815260200160028201805461249390614e4f565b80601f01602080910402602001604051908101604052809291908181526020018280546124bf90614e4f565b801561250c5780601f106124e15761010080835404028352916020019161250c565b820191906000526020600020905b8154815290600101906020018083116124ef57829003601f168201915b5050505050815260200160038201805461252590614e4f565b80601f016020809104026020016040519081016040528092919081815260200182805461255190614e4f565b801561259e5780601f106125735761010080835404028352916020019161259e565b820191906000526020600020905b81548152906001019060200180831161258157829003601f168201915b50505050508152602001600482015481526020016005820180546125c190614e4f565b80601f01602080910402602001604051908101604052809291908181526020018280546125ed90614e4f565b801561263a5780601f1061260f5761010080835404028352916020019161263a565b820191906000526020600020905b81548152906001019060200180831161261d57829003601f168201915b505050505081526020016006820160009054906101000a900473ffffffffffffffffffffffffffffffffffffffff1673ffffffffffffffffffffffffffffffffffffffff1673ffffffffffffffffffffffffffffffffffffffff1681526020016006820160149054906101000a900460ff161515151581526020016007820154815250508282815181106126d1576126d0614e80565b5b602002602001018190525080806126e790614ede565b91505061239d565b508091505090565b600560003373ffffffffffffffffffffffffffffffffffffffff1673ffffffffffffffffffffffffffffffffffffffff16815260200190815260200160002060030160019054906101000a900460ff16612786576040517f08c379a000000000000000000000000000000000000000000000000000000000815260040161277d906154a1565b60405180910390fd5b60006006600083815260200190815260200160002060000154036127df576040517f08c379a00000000000000000000000000000000000000000000000000000000081526004016127d69061550d565b60405180910390fd5b6006600082815260200190815260200160002060050160009054906101000a900460ff1615612843576040517f08c379a000000000000000000000000000000000000000000000000000000000815260040161283a90615870565b60405180910390fd5b6006600082815260200190815260200160002060050160019054906101000a900460ff16156128a7576040517f08c379a000000000000000000000000000000000000000000000000000000000815260040161289e906155e5565b60405180910390fd5b600060066000838152602001908152602001600020905060018160050160006101000a81548160ff0219169083151502179055508060020160009054906101000a900473ffffffffffffffffffffffffffffffffffffffff1673ffffffffffffffffffffffffffffffffffffffff168160010154837f3b1a288051d8f47ee62e27d79f90e2d84645799d1b2335df32f5acf4c04528648460030160009054906101000a900473ffffffffffffffffffffffffffffffffffffffff1660405161296f91906148ff565b60405180910390a45050565b600560003373ffffffffffffffffffffffffffffffffffffffff1673ffffffffffffffffffffffffffffffffffffffff16815260200190815260200160002060030160019054906101000a900460ff16612a0a576040517f08c379a0000000000000000000000000000000000000000000000000000000008152600401612a01906154a1565b60405180910390fd5b600560008273ffffffffffffffffffffffffffffffffffffffff1673ffffffffffffffffffffffffffffffffffffffff16815260200190815260200160002060030160009054906101000a900460ff16612a99576040517f08c379a0000000000000000000000000000000000000000000000000000000008152600401612a9090614f72565b60405180910390fd5b600560008273ffffffffffffffffffffffffffffffffffffffff1673ffffffffffffffffffffffffffffffffffffffff16815260200190815260200160002060030160029054906101000a900460ff1615612b29576040517f08c379a0000000000000000000000000000000000000000000000000000000008152600401612b20906158dc565b60405180910390fd5b6001600560008373ffffffffffffffffffffffffffffffffffffffff1673ffffffffffffffffffffffffffffffffffffffff16815260200190815260200160002060030160026101000a81548160ff0219169083151502179055508073ffffffffffffffffffffffffffffffffffffffff167fc64a92926550f60bfbc51a88d54266e28043ce5e6ae6206d46cee59d474fa81b60405160405180910390a250565b600560003373ffffffffffffffffffffffffffffffffffffffff1673ffffffffffffffffffffffffffffffffffffffff16815260200190815260200160002060030160019054906101000a900460ff16612c59576040517f08c379a0000000000000000000000000000000000000000000000000000000008152600401612c50906154a1565b60405180910390fd5b612c6584848484613b75565b50505050565b60076020528160005260406000208181548110612c8757600080fd5b90600052602060002001600091509150505481565b6004602052806000526040600020600091509050806000015490806001018054612cc590614e4f565b80601f0160208091040260200160405190810160405280929190818152602001828054612cf190614e4f565b8015612d3e5780601f10612d1357610100808354040283529160200191612d3e565b820191906000526020600020905b815481529060010190602001808311612d2157829003601f168201915b505050505090806002018054612d5390614e4f565b80601f0160208091040260200160405190810160405280929190818152602001828054612d7f90614e4f565b8015612dcc5780601f10612da157610100808354040283529160200191612dcc565b820191906000526020600020905b815481529060010190602001808311612daf57829003601f168201915b505050505090806003018054612de190614e4f565b80601f0160208091040260200160405190810160405280929190818152602001828054612e0d90614e4f565b8015612e5a5780601f10612e2f57610100808354040283529160200191612e5a565b820191906000526020600020905b815481529060010190602001808311612e3d57829003601f168201915b505050505090806004015490806005018054612e7590614e4f565b80601f0160208091040260200160405190810160405280929190818152602001828054612ea190614e4f565b8015612eee5780601f10612ec357610100808354040283529160200191612eee565b820191906000526020600020905b815481529060010190602001808311612ed157829003601f168201915b5050505050908060060160009054906101000a900473ffffffffffffffffffffffffffffffffffffffff16908060060160149054906101000a900460ff16908060070154905089565b600560003373ffffffffffffffffffffffffffffffffffffffff1673ffffffffffffffffffffffffffffffffffffffff16815260200190815260200160002060030160019054906101000a900460ff16612fc6576040517f08c379a0000000000000000000000000000000000000000000000000000000008152600401612fbd906154a1565b60405180910390fd5b600560008273ffffffffffffffffffffffffffffffffffffffff1673ffffffffffffffffffffffffffffffffffffffff16815260200190815260200160002060030160009054906101000a900460ff16613055576040517f08c379a000000000000000000000000000000000000000000000000000000000815260040161304c90614f72565b60405180910390fd5b3373ffffffffffffffffffffffffffffffffffffffff168173ffffffffffffffffffffffffffffffffffffffff16036130c3576040517f08c379a00000000000000000000000000000000000000000000000000000000081526004016130ba90615948565b60405180910390fd5b600560008273ffffffffffffffffffffffffffffffffffffffff1673ffffffffffffffffffffffffffffffffffffffff16815260200190815260200160002060030160029054906101000a900460ff16613152576040517f08c379a0000000000000000000000000000000000000000000000000000000008152600401613149906159b4565b60405180910390fd5b6000600560008373ffffffffffffffffffffffffffffffffffffffff1673ffffffffffffffffffffffffffffffffffffffff16815260200190815260200160002060030160026101000a81548160ff0219169083151502179055508073ffffffffffffffffffffffffffffffffffffffff167fb43ac7bf01d16ebcb8c868a4c03fecb1f6984ea4fa1a52c116ef282b8dbb17c560405160405180910390a250565b6131fb613f19565b6004600083815260200190815260200160002060060160149054906101000a900460ff1661325e576040517f08c379a000000000000000000000000000000000000000000000000000000000815260040161325590615a20565b60405180910390fd5b60046000838152602001908152602001600020604051806101200160405290816000820154815260200160018201805461329790614e4f565b80601f01602080910402602001604051908101604052809291908181526020018280546132c390614e4f565b80156133105780601f106132e557610100808354040283529160200191613310565b820191906000526020600020905b8154815290600101906020018083116132f357829003601f168201915b5050505050815260200160028201805461332990614e4f565b80601f016020809104026020016040519081016040528092919081815260200182805461335590614e4f565b80156133a25780601f10613377576101008083540402835291602001916133a2565b820191906000526020600020905b81548152906001019060200180831161338557829003601f168201915b505050505081526020016003820180546133bb90614e4f565b80601f01602080910402602001604051908101604052809291908181526020018280546133e790614e4f565b80156134345780601f1061340957610100808354040283529160200191613434565b820191906000526020600020905b81548152906001019060200180831161341757829003601f168201915b505050505081526020016004820154815260200160058201805461345790614e4f565b80601f016020809104026020016040519081016040528092919081815260200182805461348390614e4f565b80156134d05780601f106134a5576101008083540402835291602001916134d0565b820191906000526020600020905b8154815290600101906020018083116134b357829003601f168201915b505050505081526020016006820160009054906101000a900473ffffffffffffffffffffffffffffffffffffffff1673ffffffffffffffffffffffffffffffffffffffff1673ffffffffffffffffffffffffffffffffffffffff1681526020016006820160149054906101000a900460ff161515151581526020016007820154815250509050919050565b613563613a2a565b600073ffffffffffffffffffffffffffffffffffffffff168173ffffffffffffffffffffffffffffffffffffffff16036135d55760006040517f1e4fbdf70000000000000000000000000000000000000000000000000000000081526004016135cc91906148ff565b60405180910390fd5b6135de81613ab1565b50565b600560003373ffffffffffffffffffffffffffffffffffffffff1673ffffffffffffffffffffffffffffffffffffffff16815260200190815260200160002060030160019054906101000a900460ff16613670576040517f08c379a0000000000000000000000000000000000000000000000000000000008152600401613667906154a1565b60405180910390fd5b6004600082815260200190815260200160002060060160149054906101000a900460ff166136d3576040517f08c379a00000000000000000000000000000000000000000000000000000000081526004016136ca90615a20565b60405180910390fd5b60006004600083815260200190815260200160002060060160009054906101000a900473ffffffffffffffffffffffffffffffffffffffff1690506137188183613917565b60005b6009805490508110156137df57826009828154811061373d5761373c614e80565b5b9060005260206000200154036137cc57600960016009805490506137619190615a40565b8154811061377257613771614e80565b5b90600052602060002001546009828154811061379157613790614e80565b5b906000526020600020018190555060098054806137b1576137b0615a74565b5b600190038181906000526020600020016000905590556137df565b80806137d790614ede565b91505061371b565b506004600083815260200190815260200160002060008082016000905560018201600061380c9190613f7d565b60028201600061381c9190613f7d565b60038201600061382c9190613f7d565b60048201600090556005820160006138449190613f7d565b6006820160006101000a81549073ffffffffffffffffffffffffffffffffffffffff02191690556006820160146101000a81549060ff0219169055600782016000905550508073ffffffffffffffffffffffffffffffffffffffff16827fd8360dc9438bba325fa627063da918c304a691e6c9943aa276914d19a0f51e4160405160405180910390a35050565b60026001540361390d576040517f3ee5aeb500000000000000000000000000000000000000000000000000000000815260040160405180910390fd5b6002600181905550565b6000600760008473ffffffffffffffffffffffffffffffffffffffff1673ffffffffffffffffffffffffffffffffffffffff168152602001908152602001600020905060005b8180549050811015613a1b578282828154811061397d5761397c614e80565b5b906000526020600020015403613a0857816001838054905061399f9190615a40565b815481106139b0576139af614e80565b5b90600052602060002001548282815481106139ce576139cd614e80565b5b9060005260206000200181905550818054806139ed576139ec615a74565b5b60019003818190600052602060002001600090559055613a1b565b8080613a1390614ede565b91505061395d565b50505050565b60018081905550565b613a32613e3c565b73ffffffffffffffffffffffffffffffffffffffff16613a5061211b565b73ffffffffffffffffffffffffffffffffffffffff1614613aaf57613a73613e3c565b6040517f118cdaa7000000000000000000000000000000000000000000000000000000008152600401613aa691906148ff565b60405180910390fd5b565b60008060009054906101000a900473ffffffffffffffffffffffffffffffffffffffff169050816000806101000a81548173ffffffffffffffffffffffffffffffffffffffff021916908373ffffffffffffffffffffffffffffffffffffffff1602179055508173ffffffffffffffffffffffffffffffffffffffff168173ffffffffffffffffffffffffffffffffffffffff167f8be0079c531659141344cd1fd0a4f28419497f9722a3daafe3b4186f6b6457e060405160405180910390a35050565b600560008573ffffffffffffffffffffffffffffffffffffffff1673ffffffffffffffffffffffffffffffffffffffff16815260200190815260200160002060030160009054906101000a900460ff1615613c05576040517f08c379a0000000000000000000000000000000000000000000000000000000008152600401613bfc90615aef565b60405180910390fd5b600073ffffffffffffffffffffffffffffffffffffffff168473ffffffffffffffffffffffffffffffffffffffff1603613c74576040517f08c379a0000000000000000000000000000000000000000000000000000000008152600401613c6b90615b5b565b60405180910390fd5b6040518060e001604052808573ffffffffffffffffffffffffffffffffffffffff168152602001848152602001838152602001600115158152602001821515815260200160011515815260200142815250600560008673ffffffffffffffffffffffffffffffffffffffff1673ffffffffffffffffffffffffffffffffffffffff16815260200190815260200160002060008201518160000160006101000a81548173ffffffffffffffffffffffffffffffffffffffff021916908373ffffffffffffffffffffffffffffffffffffffff1602179055506020820151816001019081613d60919061535a565b506040820151816002019081613d76919061535a565b5060608201518160030160006101000a81548160ff02191690831515021790555060808201518160030160016101000a81548160ff02191690831515021790555060a08201518160030160026101000a81548160ff02191690831515021790555060c082015181600401559050508373ffffffffffffffffffffffffffffffffffffffff167fd1f005bda6f032608782b72061b075bc80a64f2b8720195c85f763dbe02c8b86848484604051613e2e93929190615b7b565b60405180910390a250505050565b600033905090565b6040518061012001604052806000815260200160008152602001600073ffffffffffffffffffffffffffffffffffffffff168152602001600073ffffffffffffffffffffffffffffffffffffffff1681526020016000815260200160001515815260200160001515815260200160008152602001606081525090565b6040518060e00160405280600073ffffffffffffffffffffffffffffffffffffffff1681526020016060815260200160608152602001600015158152602001600015158152602001600015158152602001600081525090565b604051806101200160405280600081526020016060815260200160608152602001606081526020016000815260200160608152602001600073ffffffffffffffffffffffffffffffffffffffff168152602001600015158152602001600081525090565b508054613f8990614e4f565b6000825580601f10613f9b5750613fba565b601f016020900490600052602060002090810190613fb99190613fbd565b5b50565b5b80821115613fd6576000816000905550600101613fbe565b5090565b6000604051905090565b600080fd5b600080fd5b6000819050919050565b61400181613fee565b811461400c57600080fd5b50565b60008135905061401e81613ff8565b92915050565b60006020828403121561403a57614039613fe4565b5b60006140488482850161400f565b91505092915050565b61405a81613fee565b82525050565b600073ffffffffffffffffffffffffffffffffffffffff82169050919050565b600061408b82614060565b9050919050565b61409b81614080565b82525050565b60008115159050919050565b6140b6816140a1565b82525050565b600081519050919050565b600082825260208201905092915050565b60005b838110156140f65780820151818401526020810190506140db565b60008484015250505050565b6000601f19601f8301169050919050565b600061411e826140bc565b61412881856140c7565b93506141388185602086016140d8565b61414181614102565b840191505092915050565b600061012082019050614162600083018c614051565b61416f602083018b614051565b61417c604083018a614092565b6141896060830189614092565b6141966080830188614051565b6141a360a08301876140ad565b6141b060c08301866140ad565b6141bd60e0830185614051565b8181036101008301526141d08184614113565b90509a9950505050505050505050565b60006020820190506141f56000830184614051565b92915050565b61420481614080565b811461420f57600080fd5b50565b600081359050614221816141fb565b92915050565b60006020828403121561423d5761423c613fe4565b5b600061424b84828501614212565b91505092915050565b600081519050919050565b600082825260208201905092915050565b6000819050602082019050919050565b61428981613fee565b82525050565b600061429b8383614280565b60208301905092915050565b6000602082019050919050565b60006142bf82614254565b6142c9818561425f565b93506142d483614270565b8060005b838110156143055781516142ec888261428f565b97506142f7836142a7565b9250506001810190506142d8565b5085935050505092915050565b6000602082019050818103600083015261432c81846142b4565b905092915050565b600081519050919050565b600082825260208201905092915050565b6000819050602082019050919050565b61436981614080565b82525050565b614378816140a1565b82525050565b600082825260208201905092915050565b600061439a826140bc565b6143a4818561437e565b93506143b48185602086016140d8565b6143bd81614102565b840191505092915050565b6000610120830160008301516143e16000860182614280565b5060208301516143f46020860182614280565b5060408301516144076040860182614360565b50606083015161441a6060860182614360565b50608083015161442d6080860182614280565b5060a083015161444060a086018261436f565b5060c083015161445360c086018261436f565b5060e083015161446660e0860182614280565b50610100830151848203610100860152614480828261438f565b9150508091505092915050565b600061449983836143c8565b905092915050565b6000602082019050919050565b60006144b982614334565b6144c3818561433f565b9350836020820285016144d585614350565b8060005b8581101561451157848403895281516144f2858261448d565b94506144fd836144a1565b925060208a019950506001810190506144d9565b50829750879550505050505092915050565b6000602082019050818103600083015261453d81846144ae565b905092915050565b600080fd5b600080fd5b7f4e487b7100000000000000000000000000000000000000000000000000000000600052604160045260246000fd5b61458782614102565b810181811067ffffffffffffffff821117156145a6576145a561454f565b5b80604052505050565b60006145b9613fda565b90506145c5828261457e565b919050565b600067ffffffffffffffff8211156145e5576145e461454f565b5b6145ee82614102565b9050602081019050919050565b82818337600083830152505050565b600061461d614618846145ca565b6145af565b9050828152602081018484840111156146395761463861454a565b5b6146448482856145fb565b509392505050565b600082601f83011261466157614660614545565b5b813561467184826020860161460a565b91505092915050565b6000806000806080858703121561469457614693613fe4565b5b60006146a28782880161400f565b94505060206146b387828801614212565b93505060406146c48782880161400f565b925050606085013567ffffffffffffffff8111156146e5576146e4613fe9565b5b6146f18782880161464c565b91505092959194509250565b600060e0830160008301516147156000860182614360565b506020830151848203602086015261472d828261438f565b91505060408301518482036040860152614747828261438f565b915050606083015161475c606086018261436f565b50608083015161476f608086018261436f565b5060a083015161478260a086018261436f565b5060c083015161479560c0860182614280565b508091505092915050565b600060208201905081810360008301526147ba81846146fd565b905092915050565b60008060008060008060c087890312156147df576147de613fe4565b5b600087013567ffffffffffffffff8111156147fd576147fc613fe9565b5b61480989828a0161464c565b965050602087013567ffffffffffffffff81111561482a57614829613fe9565b5b61483689828a0161464c565b955050604087013567ffffffffffffffff81111561485757614856613fe9565b5b61486389828a0161464c565b945050606061487489828a0161400f565b935050608087013567ffffffffffffffff81111561489557614894613fe9565b5b6148a189828a0161464c565b92505060a06148b289828a01614212565b9150509295509295509295565b600080604083850312156148d6576148d5613fe4565b5b60006148e48582860161400f565b92505060206148f58582860161400f565b9150509250929050565b60006020820190506149146000830184614092565b92915050565b600060208201905061492f60008301846140ad565b92915050565b600060e08201905061494a600083018a614092565b818103602083015261495c8189614113565b905081810360408301526149708188614113565b905061497f60608301876140ad565b61498c60808301866140ad565b61499960a08301856140ad565b6149a660c0830184614051565b98975050505050505050565b600081519050919050565b600082825260208201905092915050565b6000819050602082019050919050565b6000610120830160008301516149f76000860182614280565b5060208301518482036020860152614a0f828261438f565b91505060408301518482036040860152614a29828261438f565b91505060608301518482036060860152614a43828261438f565b9150506080830151614a586080860182614280565b5060a083015184820360a0860152614a70828261438f565b91505060c0830151614a8560c0860182614360565b5060e0830151614a9860e086018261436f565b50610100830151614aad610100860182614280565b508091505092915050565b6000614ac483836149de565b905092915050565b6000602082019050919050565b6000614ae4826149b2565b614aee81856149bd565b935083602082028501614b00856149ce565b8060005b85811015614b3c5784840389528151614b1d8582614ab8565b9450614b2883614acc565b925060208a01995050600181019050614b04565b50829750879550505050505092915050565b60006020820190508181036000830152614b688184614ad9565b905092915050565b614b79816140a1565b8114614b8457600080fd5b50565b600081359050614b9681614b70565b92915050565b60008060008060808587031215614bb657614bb5613fe4565b5b6000614bc487828801614212565b945050602085013567ffffffffffffffff811115614be557614be4613fe9565b5b614bf18782880161464c565b935050604085013567ffffffffffffffff811115614c1257614c11613fe9565b5b614c1e8782880161464c565b9250506060614c2f87828801614b87565b91505092959194509250565b60008060408385031215614c5257614c51613fe4565b5b6000614c6085828601614212565b9250506020614c718582860161400f565b9150509250929050565b600061012082019050614c91600083018c614051565b8181036020830152614ca3818b614113565b90508181036040830152614cb7818a614113565b90508181036060830152614ccb8189614113565b9050614cda6080830188614051565b81810360a0830152614cec8187614113565b9050614cfb60c0830186614092565b614d0860e08301856140ad565b614d16610100830184614051565b9a9950505050505050505050565b600061012083016000830151614d3d6000860182614280565b5060208301518482036020860152614d55828261438f565b91505060408301518482036040860152614d6f828261438f565b91505060608301518482036060860152614d89828261438f565b9150506080830151614d9e6080860182614280565b5060a083015184820360a0860152614db6828261438f565b91505060c0830151614dcb60c0860182614360565b5060e0830151614dde60e086018261436f565b50610100830151614df3610100860182614280565b508091505092915050565b60006020820190508181036000830152614e188184614d24565b905092915050565b7f4e487b7100000000000000000000000000000000000000000000000000000000600052602260045260246000fd5b60006002820490506001821680614e6757607f821691505b602082108103614e7a57614e79614e20565b5b50919050565b7f4e487b7100000000000000000000000000000000000000000000000000000000600052603260045260246000fd5b7f4e487b7100000000000000000000000000000000000000000000000000000000600052601160045260246000fd5b6000614ee982613fee565b91507fffffffffffffffffffffffffffffffffffffffffffffffffffffffffffffffff8203614f1b57614f1a614eaf565b5b600182019050919050565b7f55736572206e6f74207265676973746572656400000000000000000000000000600082015250565b6000614f5c6013836140c7565b9150614f6782614f26565b602082019050919050565b60006020820190508181036000830152614f8b81614f4f565b9050919050565b7f55736572206973206e6f74206163746976650000000000000000000000000000600082015250565b6000614fc86012836140c7565b9150614fd382614f92565b602082019050919050565b60006020820190508181036000830152614ff781614fbb565b9050919050565b7f4e6f74206c616e64206f776e6572000000000000000000000000000000000000600082015250565b6000615034600e836140c7565b915061503f82614ffe565b602082019050919050565b6000602082019050818103600083015261506381615027565b9050919050565b7f496e76616c696420726563697069656e74206164647265737300000000000000600082015250565b60006150a06019836140c7565b91506150ab8261506a565b602082019050919050565b600060208201905081810360008301526150cf81615093565b9050919050565b7f526563697069656e74206e6f7420726567697374657265640000000000000000600082015250565b600061510c6018836140c7565b9150615117826150d6565b602082019050919050565b6000602082019050818103600083015261513b816150ff565b9050919050565b7f43616e6e6f74207472616e7366657220746f20796f757273656c660000000000600082015250565b6000615178601b836140c7565b915061518382615142565b602082019050919050565b600060208201905081810360008301526151a78161516b565b9050919050565b60008190508160005260206000209050919050565b60006020601f8301049050919050565b600082821b905092915050565b6000600883026152107fffffffffffffffffffffffffffffffffffffffffffffffffffffffffffffffff826151d3565b61521a86836151d3565b95508019841693508086168417925050509392505050565b6000819050919050565b600061525761525261524d84613fee565b615232565b613fee565b9050919050565b6000819050919050565b6152718361523c565b61528561527d8261525e565b8484546151e0565b825550505050565b600090565b61529a61528d565b6152a5818484615268565b505050565b5b818110156152c9576152be600082615292565b6001810190506152ab565b5050565b601f82111561530e576152df816151ae565b6152e8846151c3565b810160208510156152f7578190505b61530b615303856151c3565b8301826152aa565b50505b505050565b600082821c905092915050565b600061533160001984600802615313565b1980831691505092915050565b600061534a8383615320565b9150826002028217905092915050565b615363826140bc565b67ffffffffffffffff81111561537c5761537b61454f565b5b6153868254614e4f565b6153918282856152cd565b600060209050601f8311600181146153c457600084156153b2578287015190505b6153bc858261533e565b865550615424565b601f1984166153d2866151ae565b60005b828110156153fa578489015182556001820191506020850194506020810190506153d5565b868310156154175784890151615413601f891682615320565b8355505b6001600288020188555050505b505050505050565b60006040820190506154416000830185614092565b61544e6020830184614051565b9392505050565b7f4e6f7420616e2061646d696e0000000000000000000000000000000000000000600082015250565b600061548b600c836140c7565b915061549682615455565b602082019050919050565b600060208201905081810360008301526154ba8161547e565b9050919050565b7f52657175657374206e6f7420666f756e64000000000000000000000000000000600082015250565b60006154f76011836140c7565b9150615502826154c1565b602082019050919050565b60006020820190508181036000830152615526816154ea565b9050919050565b7f5472616e73666572206e6f7420617070726f7665640000000000000000000000600082015250565b60006155636015836140c7565b915061556e8261552d565b602082019050919050565b6000602082019050818103600083015261559281615556565b9050919050565b7f416c726561647920636f6d706c65746564000000000000000000000000000000600082015250565b60006155cf6011836140c7565b91506155da82615599565b602082019050919050565b600060208201905081810360008301526155fe816155c2565b9050919050565b7f55736572206e6f7420666f756e64000000000000000000000000000000000000600082015250565b600061563b600e836140c7565b915061564682615605565b602082019050919050565b6000602082019050818103600083015261566a8161562e565b9050919050565b7f496e76616c6964206f776e657220616464726573730000000000000000000000600082015250565b60006156a76015836140c7565b91506156b282615671565b602082019050919050565b600060208201905081810360008301526156d68161569a565b9050919050565b7f4f776e6572206e6f742072656769737465726564000000000000000000000000600082015250565b60006157136014836140c7565b915061571e826156dd565b602082019050919050565b6000602082019050818103600083015261574281615706565b9050919050565b7f4c616e6420494420726571756972656400000000000000000000000000000000600082015250565b600061577f6010836140c7565b915061578a82615749565b602082019050919050565b600060208201905081810360008301526157ae81615772565b9050919050565b600060a08201905081810360008301526157cf8188614113565b905081810360208301526157e38187614113565b905081810360408301526157f78186614113565b90506158066060830185614051565b81810360808301526158188184614113565b90509695505050505050565b7f416c726561647920617070726f76656400000000000000000000000000000000600082015250565b600061585a6010836140c7565b915061586582615824565b602082019050919050565b600060208201905081810360008301526158898161584d565b9050919050565b7f5573657220697320616c72656164792061637469766500000000000000000000600082015250565b60006158c66016836140c7565b91506158d182615890565b602082019050919050565b600060208201905081810360008301526158f5816158b9565b9050919050565b7f43616e6e6f74207265766f6b6520796f757273656c6600000000000000000000600082015250565b60006159326016836140c7565b915061593d826158fc565b602082019050919050565b6000602082019050818103600083015261596181615925565b9050919050565b7f5573657220616c7265616479207265766f6b6564000000000000000000000000600082015250565b600061599e6014836140c7565b91506159a982615968565b602082019050919050565b600060208201905081810360008301526159cd81615991565b9050919050565b7f4c616e64206e6f7420666f756e64000000000000000000000000000000000000600082015250565b6000615a0a600e836140c7565b9150615a15826159d4565b602082019050919050565b60006020820190508181036000830152615a39816159fd565b9050919050565b6000615a4b82613fee565b9150615a5683613fee565b9250828203905081811115615a6e57615a6d614eaf565b5b92915050565b7f4e487b7100000000000000000000000000000000000000000000000000000000600052603160045260246000fd5b7f5573657220616c72656164792072656769737465726564000000000000000000600082015250565b6000615ad96017836140c7565b9150615ae482615aa3565b602082019050919050565b60006020820190508181036000830152615b0881615acc565b9050919050565b7f496e76616c696420616464726573730000000000000000000000000000000000600082015250565b6000615b45600f836140c7565b9150615b5082615b0f565b602082019050919050565b60006020820190508181036000830152615b7481615b38565b9050919050565b60006060820190508181036000830152615b958186614113565b90508181036020830152615ba98185614113565b9050615bb860408301846140ad565b94935050505056fea26469706673582212207047101fc49f96e747fcc7d33759c7b68423b57116796fde7bedf8817e4bfbb264736f6c63430008140033",
  "linkReferences": {},
  "deployedLinkReferences": {}
}